{
  "_format": "hh-sol-artifact-1",
  "contractName": "VaultV1",
  "sourceName": "contracts/VaultV1.sol",
  "abi": [
    {
      "inputs": [],
      "stateMutability": "nonpayable",
      "type": "constructor"
    },
    {
      "inputs": [
        {
          "internalType": "address",
          "name": "target",
          "type": "address"
        }
      ],
      "name": "AddressEmptyCode",
      "type": "error"
    },
    {
      "inputs": [
        {
          "internalType": "address",
          "name": "implementation",
          "type": "address"
        }
      ],
      "name": "ERC1967InvalidImplementation",
      "type": "error"
    },
    {
      "inputs": [],
      "name": "ERC1967NonPayable",
      "type": "error"
    },
    {
      "inputs": [],
      "name": "FailedCall",
      "type": "error"
    },
    {
      "inputs": [],
      "name": "InvalidInitialization",
      "type": "error"
    },
    {
      "inputs": [],
      "name": "NotInitializing",
      "type": "error"
    },
    {
      "inputs": [
        {
          "internalType": "address",
          "name": "owner",
          "type": "address"
        }
      ],
      "name": "OwnableInvalidOwner",
      "type": "error"
    },
    {
      "inputs": [
        {
          "internalType": "address",
          "name": "account",
          "type": "address"
        }
      ],
      "name": "OwnableUnauthorizedAccount",
      "type": "error"
    },
    {
      "inputs": [],
      "name": "UUPSUnauthorizedCallContext",
      "type": "error"
    },
    {
      "inputs": [
        {
          "internalType": "bytes32",
          "name": "slot",
          "type": "bytes32"
        }
      ],
      "name": "UUPSUnsupportedProxiableUUID",
      "type": "error"
    },
    {
      "anonymous": false,
      "inputs": [
        {
          "indexed": true,
          "internalType": "address",
          "name": "user",
          "type": "address"
        },
        {
          "indexed": false,
          "internalType": "uint256",
          "name": "amount",
          "type": "uint256"
        }
      ],
      "name": "Deposited",
      "type": "event"
    },
    {
      "anonymous": false,
      "inputs": [
        {
          "indexed": false,
          "internalType": "uint64",
          "name": "version",
          "type": "uint64"
        }
      ],
      "name": "Initialized",
      "type": "event"
    },
    {
      "anonymous": false,
      "inputs": [
        {
          "indexed": true,
          "internalType": "address",
          "name": "previousOwner",
          "type": "address"
        },
        {
          "indexed": true,
          "internalType": "address",
          "name": "newOwner",
          "type": "address"
        }
      ],
      "name": "OwnershipTransferred",
      "type": "event"
    },
    {
      "anonymous": false,
      "inputs": [
        {
          "indexed": true,
          "internalType": "address",
          "name": "user",
          "type": "address"
        },
        {
          "indexed": false,
          "internalType": "uint256",
          "name": "amount",
          "type": "uint256"
        }
      ],
      "name": "RewardClaimed",
      "type": "event"
    },
    {
      "anonymous": false,
      "inputs": [
        {
          "indexed": false,
          "internalType": "uint256",
          "name": "oldMultiplier",
          "type": "uint256"
        },
        {
          "indexed": false,
          "internalType": "uint256",
          "name": "newMultiplier",
          "type": "uint256"
        }
      ],
      "name": "RewardMultiplierUpdated",
      "type": "event"
    },
    {
      "anonymous": false,
      "inputs": [
        {
          "indexed": true,
          "internalType": "address",
          "name": "implementation",
          "type": "address"
        }
      ],
      "name": "Upgraded",
      "type": "event"
    },
    {
      "anonymous": false,
      "inputs": [
        {
          "indexed": true,
          "internalType": "address",
          "name": "user",
          "type": "address"
        },
        {
          "indexed": false,
          "internalType": "uint256",
          "name": "amount",
          "type": "uint256"
        }
      ],
      "name": "Withdrawn",
      "type": "event"
    },
    {
      "inputs": [],
      "name": "UPGRADE_INTERFACE_VERSION",
      "outputs": [
        {
          "internalType": "string",
          "name": "",
          "type": "string"
        }
      ],
      "stateMutability": "view",
      "type": "function"
    },
    {
      "inputs": [
        {
          "internalType": "address",
          "name": "user",
          "type": "address"
        }
      ],
      "name": "accruedRewardOf",
      "outputs": [
        {
          "internalType": "uint256",
          "name": "",
          "type": "uint256"
        }
      ],
      "stateMutability": "view",
      "type": "function"
    },
    {
      "inputs": [],
      "name": "claimRewards",
      "outputs": [],
      "stateMutability": "nonpayable",
      "type": "function"
    },
    {
      "inputs": [],
      "name": "deposit",
      "outputs": [],
      "stateMutability": "payable",
      "type": "function"
    },
    {
      "inputs": [
        {
          "internalType": "uint256",
          "name": "initialRewardMultiplier",
          "type": "uint256"
        },
        {
          "internalType": "address",
          "name": "initialOwner",
          "type": "address"
        }
      ],
      "name": "initialize",
      "outputs": [],
      "stateMutability": "nonpayable",
      "type": "function"
    },
    {
      "inputs": [],
      "name": "owner",
      "outputs": [
        {
          "internalType": "address",
          "name": "",
          "type": "address"
        }
      ],
      "stateMutability": "view",
      "type": "function"
    },
    {
      "inputs": [
        {
          "internalType": "address",
          "name": "user",
          "type": "address"
        }
      ],
      "name": "principalOf",
      "outputs": [
        {
          "internalType": "uint256",
          "name": "",
          "type": "uint256"
        }
      ],
      "stateMutability": "view",
      "type": "function"
    },
    {
      "inputs": [],
      "name": "proxiableUUID",
      "outputs": [
        {
          "internalType": "bytes32",
          "name": "",
          "type": "bytes32"
        }
      ],
      "stateMutability": "view",
      "type": "function"
    },
    {
      "inputs": [],
      "name": "renounceOwnership",
      "outputs": [],
      "stateMutability": "nonpayable",
      "type": "function"
    },
    {
      "inputs": [],
      "name": "rewardMultiplier",
      "outputs": [
        {
          "internalType": "uint256",
          "name": "",
          "type": "uint256"
        }
      ],
      "stateMutability": "view",
      "type": "function"
    },
    {
      "inputs": [
        {
          "internalType": "uint256",
          "name": "newRewardMultiplier",
          "type": "uint256"
        }
      ],
      "name": "setRewardMultiplier",
      "outputs": [],
      "stateMutability": "nonpayable",
      "type": "function"
    },
    {
      "inputs": [],
      "name": "totalEthLocked",
      "outputs": [
        {
          "internalType": "uint256",
          "name": "",
          "type": "uint256"
        }
      ],
      "stateMutability": "view",
      "type": "function"
    },
    {
      "inputs": [
        {
          "internalType": "address",
          "name": "newOwner",
          "type": "address"
        }
      ],
      "name": "transferOwnership",
      "outputs": [],
      "stateMutability": "nonpayable",
      "type": "function"
    },
    {
      "inputs": [
        {
          "internalType": "address",
          "name": "newImplementation",
          "type": "address"
        },
        {
          "internalType": "bytes",
          "name": "data",
          "type": "bytes"
        }
      ],
      "name": "upgradeToAndCall",
      "outputs": [],
      "stateMutability": "payable",
      "type": "function"
    },
    {
      "inputs": [
        {
          "internalType": "uint256",
          "name": "amount",
          "type": "uint256"
        }
      ],
      "name": "withdraw",
      "outputs": [],
      "stateMutability": "nonpayable",
      "type": "function"
    }
  ],
  "bytecode": "0x60a06040523060805234801561001457600080fd5b5061001d610022565b6100d4565b7ff0c57e16840df040f15088dc2f81fe391c3923bec73e23a9662efc9c229c6a00805468010000000000000000900460ff16156100725760405163f92ee8a960e01b815260040160405180910390fd5b80546001600160401b03908116146100d15780546001600160401b0319166001600160401b0390811782556040519081527fc7f505b2f371ae2175ee4913f4499e1f2633a7b5936321eed1cdaeb6115181d29060200160405180910390a15b50565b6080516112a36100fd60003960008181610b9b01528181610bc40152610d0501526112a36000f3fe6080604052600436106100e85760003560e01c80636f2c590a1161008a578063d0e30db011610059578063d0e30db014610285578063da35a26f1461028d578063e479c8f7146102ad578063f2fde38b146102c357600080fd5b80636f2c590a146101d5578063715018a6146101eb5780638da5cb5b14610200578063ad3cb1cc1461024757600080fd5b8063372500ab116100c6578063372500ab146101625780634f1ef2861461017757806352d1902d1461018a57806361e20a1c1461019f57600080fd5b80630bd075a1146100ed57806329f9b2dc1461010f5780632e1a7d4d14610142575b600080fd5b3480156100f957600080fd5b5061010d610108366004610fed565b6102e3565b005b34801561011b57600080fd5b5061012f61012a366004611022565b610374565b6040519081526020015b60405180910390f35b34801561014e57600080fd5b5061010d61015d366004610fed565b610385565b34801561016e57600080fd5b5061010d610540565b61010d61018536600461105a565b6106de565b34801561019657600080fd5b5061012f6106fd565b3480156101ab57600080fd5b5061012f6101ba366004611022565b6001600160a01b031660009081526003602052604090205490565b3480156101e157600080fd5b5061012f60005481565b3480156101f757600080fd5b5061010d61071a565b34801561020c57600080fd5b507f9016d09d72d40fdae2fd8ceac6b6234c7706214fd39c1cd1e609a0528c199300546040516001600160a01b039091168152602001610139565b34801561025357600080fd5b50610278604051806040016040528060058152602001640352e302e360dc1b81525081565b604051610139919061111c565b61010d61072e565b34801561029957600080fd5b5061010d6102a836600461116b565b61080e565b3480156102b957600080fd5b5061012f60015481565b3480156102cf57600080fd5b5061010d6102de366004611022565b610954565b6102eb610992565b6000811161032f5760405162461bcd60e51b815260206004820152600c60248201526b06d756c7469706c6965723d360a41b60448201526064015b60405180910390fd5b600080549082905560408051828152602081018490527f5cb5234fd8ae55132176801e29521a6e49b3bef9f95ab08884ee1255facbb80d910160405180910390a15050565b600061037f826109ed565b92915050565b6002546001146103a75760405162461bcd60e51b815260040161032690611197565b60028055806103e35760405162461bcd60e51b81526020600482015260086024820152670616d6f756e743d360c41b6044820152606401610326565b6103ec33610acb565b33600090815260036020526040902080548211156104455760405162461bcd60e51b81526020600482015260166024820152751a5b9cdd59999a58da595b9d081c1c9a5b98da5c185b60521b6044820152606401610326565b8181600001600082825461045991906111d5565b92505081905550816001600082825461047291906111d5565b9091555050604051600090339084908381818185875af1925050503d80600081146104b9576040519150601f19603f3d011682016040523d82523d6000602084013e6104be565b606091505b50509050806105015760405162461bcd60e51b815260206004820152600f60248201526e1d1c985b9cd9995c8819985a5b1959608a1b6044820152606401610326565b60405183815233907f7084f5476618d8e60b11ef0d7d3f06914655adb8793e28ff7f018d4c76d505d59060200160405180910390a25050600160025550565b6002546001146105625760405162461bcd60e51b815260040161032690611197565b6002805561056f33610acb565b33600090815260046020526040902054806105b75760405162461bcd60e51b815260206004820152600860248201526707265776172643d360c41b6044820152606401610326565b804710156106075760405162461bcd60e51b815260206004820152601c60248201527f696e73756666696369656e74207661756c74206c6971756964697479000000006044820152606401610326565b336000818152600460205260408082208290555190919083908381818185875af1925050503d8060008114610658576040519150601f19603f3d011682016040523d82523d6000602084013e61065d565b606091505b50509050806106a05760405162461bcd60e51b815260206004820152600f60248201526e1d1c985b9cd9995c8819985a5b1959608a1b6044820152606401610326565b60405182815233907f106f923f993c2149d49b4255ff723acafa1f2d94393f561d3eda32ae348f72419060200160405180910390a250506001600255565b6106e6610b90565b6106ef82610c35565b6106f98282610c3d565b5050565b6000610707610cfa565b5060008051602061124e83398151915290565b610722610992565b61072c6000610d43565b565b6002546001146107505760405162461bcd60e51b815260040161032690611197565b600280553461078c5760405162461bcd60e51b81526020600482015260086024820152670616d6f756e743d360c41b6044820152606401610326565b61079533610acb565b33600090815260036020526040812080543492906107b49084906111e8565b9250508190555034600160008282546107cd91906111e8565b909155505060405134815233907f2da466a7b24304f47e87fa2e1e5a81b9831ce54fec19055ce277ca2f39ba42c49060200160405180910390a26001600255565b6000610818610db4565b805490915060ff600160401b820416159067ffffffffffffffff166000811580156108405750825b905060008267ffffffffffffffff16600114801561085d5750303b155b90508115801561086b575080155b156108895760405163f92ee8a960e01b815260040160405180910390fd5b845467ffffffffffffffff1916600117855583156108b357845460ff60401b1916600160401b1785555b6108bc86610ddd565b600087116108fb5760405162461bcd60e51b815260206004820152600c60248201526b06d756c7469706c6965723d360a41b6044820152606401610326565b60008790556001600255831561094b57845460ff60401b19168555604051600181527fc7f505b2f371ae2175ee4913f4499e1f2633a7b5936321eed1cdaeb6115181d29060200160405180910390a15b50505050505050565b61095c610992565b6001600160a01b03811661098657604051631e4fbdf760e01b815260006004820152602401610326565b61098f81610d43565b50565b336109c47f9016d09d72d40fdae2fd8ceac6b6234c7706214fd39c1cd1e609a0528c199300546001600160a01b031690565b6001600160a01b03161461072c5760405163118cdaa760e01b8152336004820152602401610326565b6001600160a01b03811660009081526003602090815260408083208151808301909252805480835260019091015492820192909252908203610a465750506001600160a01b031660009081526004602052604090205490565b6000816020015142610a5891906111d5565b905060006301e13380670de0b6b3a7640000836000548660000151610a7d91906111fb565b610a8791906111fb565b610a919190611212565b610a9b9190611212565b6001600160a01b038616600090815260046020526040902054909150610ac29082906111e8565b95945050505050565b6001600160a01b03811660009081526003602052604081208054909103610af6574260019091015550565b6000816001015442610b0891906111d5565b90508015610b8b5760006301e13380670de0b6b3a7640000836000548660000154610b3391906111fb565b610b3d91906111fb565b610b479190611212565b610b519190611212565b6001600160a01b038516600090815260046020526040812080549293508392909190610b7e9084906111e8565b9091555050426001840155505b505050565b306001600160a01b037f0000000000000000000000000000000000000000000000000000000000000000161480610c1757507f00000000000000000000000000000000000000000000000000000000000000006001600160a01b0316610c0b60008051602061124e833981519152546001600160a01b031690565b6001600160a01b031614155b1561072c5760405163703e46dd60e11b815260040160405180910390fd5b61098f610992565b816001600160a01b03166352d1902d6040518163ffffffff1660e01b8152600401602060405180830381865afa925050508015610c97575060408051601f3d908101601f19168201909252610c9491810190611234565b60015b610cbf57604051634c9c8ce360e01b81526001600160a01b0383166004820152602401610326565b60008051602061124e8339815191528114610cf057604051632a87526960e21b815260048101829052602401610326565b610b8b8383610dee565b306001600160a01b037f0000000000000000000000000000000000000000000000000000000000000000161461072c5760405163703e46dd60e11b815260040160405180910390fd5b7f9016d09d72d40fdae2fd8ceac6b6234c7706214fd39c1cd1e609a0528c19930080546001600160a01b031981166001600160a01b03848116918217845560405192169182907f8be0079c531659141344cd1fd0a4f28419497f9722a3daafe3b4186f6b6457e090600090a3505050565b6000807ff0c57e16840df040f15088dc2f81fe391c3923bec73e23a9662efc9c229c6a0061037f565b610de5610e44565b61098f81610e69565b610df782610e71565b6040516001600160a01b038316907fbc7cd75a20ee27fd9adebab32041f755214dbc6bffa90cc0225b39da2e5c2d3b90600090a2805115610e3c57610b8b8282610ed6565b6106f9610f79565b610e4c610f98565b61072c57604051631afcd79f60e31b815260040160405180910390fd5b61095c610e44565b806001600160a01b03163b600003610ea757604051634c9c8ce360e01b81526001600160a01b0382166004820152602401610326565b60008051602061124e83398151915280546001600160a01b0319166001600160a01b0392909216919091179055565b60606000610ee48484610fb2565b9050808015610f07575060003d1180610f0757506000846001600160a01b03163b115b15610f1c57610f14610fc7565b91505061037f565b8015610f4657604051639996b31560e01b81526001600160a01b0385166004820152602401610326565b3d15610f5957610f54610fe1565b610f72565b60405163d6bda27560e01b815260040160405180910390fd5b5092915050565b341561072c5760405163b398979f60e01b815260040160405180910390fd5b6000610fa2610db4565b54600160401b900460ff16919050565b6000806000835160208501865af49392505050565b6040513d81523d6000602083013e3d602001810160405290565b6040513d6000823e3d81fd5b600060208284031215610fff57600080fd5b5035919050565b80356001600160a01b038116811461101d57600080fd5b919050565b60006020828403121561103457600080fd5b61103d82611006565b9392505050565b634e487b7160e01b600052604160045260246000fd5b6000806040838503121561106d57600080fd5b61107683611006565b9150602083013567ffffffffffffffff8082111561109357600080fd5b818501915085601f8301126110a757600080fd5b8135818111156110b9576110b9611044565b604051601f8201601f19908116603f011681019083821181831017156110e1576110e1611044565b816040528281528860208487010111156110fa57600080fd5b8260208601602083013760006020848301015280955050505050509250929050565b60006020808352835180602085015260005b8181101561114a5785810183015185820160400152820161112e565b506000604082860101526040601f19601f8301168501019250505092915050565b6000806040838503121561117e57600080fd5b8235915061118e60208401611006565b90509250929050565b6020808252600e908201526d1c99595b9d1c985b9d0818d85b1b60921b604082015260600190565b634e487b7160e01b600052601160045260246000fd5b8181038181111561037f5761037f6111bf565b8082018082111561037f5761037f6111bf565b808202811582820484141761037f5761037f6111bf565b60008261122f57634e487b7160e01b600052601260045260246000fd5b500490565b60006020828403121561124657600080fd5b505191905056fe360894a13ba1a3210667c828492db98dca3e2076cc3735a920a3ca505d382bbca2646970667358221220dd2b6b59256c351abd8a1df9c88352682b881955e71f5d3b6c4a6697749324a264736f6c63430008170033",
  "linkReferences": {},
  "deployedLinkReferences": {}
}